:100000000C9434000C943E000C943E000C943E0082
:100010000C943E000C943E000C943E000C943E0068
:100020000C943E000C943E000C943E000C943E0058
:100030000C943E000C943E000C943E000C943E0048
:100040000C943E000C943E000C943E000C943E0038
:100050000C943E000C943E000C943E000C943E0028
:100060000C943E000C943E0011241FBECFEFD8E04C
:10007000DEBFCDBF0E9451000C9462000C940000C2
:10008000569A5E98089517BC84B5836884BD84B57C
:100090008F7884BD85B5856085BD85B58D7F85BD2F
:1000A00008950E9440000E94430087B58F5F87BD7E
:1000B0002FEF83EC99E0215080409040E1F700C0A1
:0800C0000000F3CFF894FFCF1C
:00000001FF
